:100000000C9434000C94A6000C9451000C945100F4
:100010000C9451000C9451000C9451000C9451001C
:100020000C9451000C9451000C9451000C9451000C
:100030000C9451000C9451000C9451000C945100FC
:100040000C9451000C9451000C946E000C945100CF
:100050000C9451000C9451000C9451000C945100DC
:100060000C9451000C94510011241FBECFEFD8E026
:10007000DEBFCDBF11E0A0E0B1E0E2EEF2E002C0F1
:1000800005900D92AC31B107D9F721E0ACE1B1E0B8
:1000900001C01D92A432B207E1F70E94B5000C9492
:1000A0006F010C94000090917C00907F892B8093CD
:1000B0007C0080917A00806480937A0080917A003D
:1000C00086FDFCCF80917800909179000895909101
:1000D000C00095FFFCCF8093C60008951F920F9239
:1000E0000FB60F9211248F939F938091C600909129
:1000F0001C0191110CC0863519F581E080931C011B
:100100009F918F910F900FBE0F901F901895913077
:1001100021F48A33A9F482E0F1CF923021F4809364
:100120001D0183E0EBCF933021F48C3249F484E05D
:10013000E5CF943029F480931E0110921C01E0CF8A
:100140008035D9F781E080931F01F7CF1F920F927E
:100150000FB60F9211248F9381E080931F018F912E
:100160000F900FBE0F901F9018951092C50087E654
:100170008093C40088E98093C10086E08093C20028
:1001800080E480937C0087E880937A0083EA84BDD2
:1001900082E085BD17BC18BC93E29093B0008093B9
:1001A000B1001092B40094B1976094B99AB1986676
:1001B0009AB957985F9A289A52985A9A80936900E8
:1001C00081E08DBB7894C0E0D1E08991811150C06D
:1001D0001DE20AE580E00E945300EC01D695C79528
:1001E000D695C795C093230181E00E945300969550
:1001F0008795969587958093220182E00E9453000F
:1002000096958795969587958093210189B18095DC
:10021000881F8827881F80932001CA5085B1CF3B53
:1002200050F1866085B981E080931F0180912201A1
:100230008456833318F107BD80911F01811120C0BE
:100240008091200181111CC080911E0188BD809188
:100250001D018093B400289A80911F018823B9F072
:10026000CFE0D1E08991882381F00E946700FACF26
:100270000E946700AACF897F85B9D8CF17BDDCCF90
:1002800018BC1092B4002898E7CF10921F0183E5A4
:100290000E9467008AE30E946700809123010E9408
:1002A00067008CE20E946700809122010E94670033
:1002B0008CE20E946700809121010E9467008DE01E
:1002C0000E9467008AE00E9467008FEF91EE24E0B1
:1002D000815090402040E1F700C000007BCFF894AF
:0202E000FFCF4E
:1002E20041726475696E6F2032204F4B0D0A0050C7
:0C02F2004152414441204F4B0D0A0000D6
:00000001FF
