:020000040000FA
:100000000C9434000C94A6000C9451000C945100F4
:100010000C9451000C9451000C9451000C9451001C
:100020000C9451000C9451000C9451000C9451000C
:100030000C9451000C9451000C9451000C945100FC
:100040000C9451000C9451000C946E000C945100CF
:100050000C9451000C9451000C9451000C945100DC
:100060000C9451000C94510011241FBECFEFD8E026
:10007000DEBFCDBF11E0A0E0B1E0E2EEF2E002C0F1
:1000800005900D92AC31B107D9F721E0ACE1B1E0B8
:1000900001C01D92A432B207E1F70E94B5000C9492
:1000A0006F010C94000090917C00907F892B8093CD
:1000B0007C0080917A00806480937A0080917A003D
:1000C00086FDFCCF80917800909179000895909101
:1000D000C00095FFFCCF8093C60008951F920F9239
:1000E0000FB60F9211248F939F938091C600909129
:1000F0001C0191110CC0863519F581E080931C011B
:100100009F918F910F900FBE0F901F901895913077
:1001100021F48A33A9F482E0F1CF923021F4809364
:100120001D0183E0EBCF933021F48C3249F484E05D
:10013000E5CF943029F480931E0110921C01E0CF8A
:100140008035D9F781E080931F01F7CF1F920F927E
:100150000FB60F9211248F9381E080931F018F912E
:100160000F900FBE0F901F9018951092C50087E654
:100170008093C40088E98093C10086E08093C20028
:1001800080E480937C0087E880937A0083EA84BDD2
:1001900082E085BD17BC18BC93E29093B0008093B9
:1001A000B1001092B40094B1976094B99AB1986676
:1001B0009AB957985F9A289A52985A9A80936900E8
:1001C00081E08DBB7894C0E0D1E08991811150C06D
:1001D0001DE20AE580E00E945300EC01D695C79528
:1001E000D695C795C093230181E00E945300969550
:1001F0008795969587958093220182E00E9453000F
:1002000096958795969587958093210189B18095DC
:10021000881F8827881F80932001CA5085B1CF3B53
:1002200050F1866085B981E080931F0180912201A1
:100230008456833318F107BD80911F01811120C0BE
:100240008091200181111CC080911E0188BD809188
:100250001D018093B400289A80911F018823B9F072
:10026000CFE0D1E08991882381F00E946700FACF26
:100270000E946700AACF897F85B9D8CF17BDDCCF90
:1002800018BC1092B4002898E7CF10921F0183E5A4
:100290000E9467008AE30E946700809123010E9408
:1002A00067008CE20E946700809122010E94670033
:1002B0008CE20E946700809121010E9467008DE01E
:1002C0000E9467008AE00E9467008FEF91EE24E0B1
:1002D000815090402040E1F700C000007BCFF894AF
:1002E000FFCF41726475696E6F2032204F4B0D0A4B
:0E02F00000504152414441204F4B0D0A000086
:107E0000112484B714BE81FFF0D085E080938100F7
:107E100082E08093C00088E18093C10086E0809377
:107E2000C20080E18093C4008EE0C9D0259A86E02C
:107E300020E33CEF91E0309385002093840096BBD3
:107E4000B09BFECF1D9AA8958150A9F7CC24DD24C4
:107E500088248394B5E0AB2EA1E19A2EF3E0BF2EE7
:107E6000A2D0813461F49FD0082FAFD0023811F036
:107E7000013811F484E001C083E08DD089C08234E0
:107E800011F484E103C0853419F485E0A6D080C0E4
:107E9000853579F488D0E82EFF2485D0082F10E0AE
:107EA000102F00270E291F29000F111F8ED06801E7
:107EB0006FC0863521F484E090D080E0DECF843638
:107EC00009F040C070D06FD0082F6DD080E0C81688
:107ED00080E7D80618F4F601B7BEE895C0E0D1E017
:107EE00062D089930C17E1F7F0E0CF16F0E7DF06D8
:107EF00018F0F601B7BEE89568D007B600FCFDCFD4
:107F0000A601A0E0B1E02C9130E011968C91119780
:107F100090E0982F8827822B932B1296FA010C0160
:107F200087BEE89511244E5F5F4FF1E0A038BF0790
:107F300051F7F601A7BEE89507B600FCFDCF97BE46
:107F4000E89526C08437B1F42ED02DD0F82E2BD052
:107F50003CD0F601EF2C8F010F5F1F4F84911BD097
:107F6000EA94F801C1F70894C11CD11CFA94CF0C13
:107F7000D11C0EC0853739F428D08EE10CD085E9AC
:107F80000AD08FE07ACF813511F488E018D01DD067
:107F900080E101D065CF982F8091C00085FFFCCF94
:107FA0009093C60008958091C00087FFFCCF809118
:107FB000C00084FD01C0A8958091C6000895E0E648
:107FC000F0E098E1908380830895EDDF803219F02E
:107FD00088E0F5DFFFCF84E1DECF1F93182FE3DFCA
:107FE0001150E9F7F2DF1F91089580E0E8DFEE27F6
:047FF000FF270994CA
:027FFE00040479
:00000001FF
