:020000040000FA
:100000000C9434000C949F000C9451000C945100FB
:100010000C9451000C9451000C9451000C9451001C
:100020000C9451000C9451000C9451000C9451000C
:100030000C9451000C9451000C9451000C945100FC
:100040000C9451000C9451000C9473000C945100CA
:100050000C9451000C9451000C9451000C945100DC
:100060000C9451000C94510011241FBECFEFD8E026
:10007000DEBFCDBF22E0A0EEB1E001C01D92A333F0
:10008000B207E1F711E0A0E0B1E0E6E1FBE002C079
:1000900005900D92A03EB107D9F70E94AE000C94D6
:1000A00089050C94000090917C00987F892B8093A7
:1000B0007C0080917A00806480937A0080917A003D
:1000C00086FDFCCF80917800909179000895FC0125
:1000D0009191992339F08091C00085FFFCCF9093D6
:1000E000C600F6CF08951F920F920FB60F921124FB
:1000F0008F939F93EF93FF938091C600E091E0016F
:100100008A3091F4F0E0EF51FE4F108281E080934D
:1001100030021092E001FF91EF919F918F910F902B
:100120000FBE0F901F901895EF33A8F791E09E0F28
:100130009093E001F0E0EF51FE4F8083ECCF1F92EF
:100140000F920FB60F9211248F9381E080932602B5
:100150008F910F900FBE0F901F901895CF93DF9344
:10016000CDB7DEB7C054D1090FB6F894DEBF0FBECD
:10017000CDBF1092C50087E68093C40088E98093C4
:10018000C10086E08093C20080E480937C0087E811
:1001900080937A0084B1876084B98AB188668AB90D
:1001A00057985F9A87B1886787B984B1886384B9A3
:1001B000549A289A83EA84BD83E085BD83E28093C4
:1001C000B00084E08093B10017BC18BC1092B4005A
:1001D00052985A9A82E08093690081E08DBB7894AE
:1001E00080E091E00E9467008E010F5F1F4FBB24EB
:1001F000B39444EFC42EDD24D3945AE5A52E64EBCA
:10020000762E7FEBE72E71E0F72E80913002882367
:10021000C1F061EE71E0C8010E94AA0268E271E0DB
:10022000C8010E946D024C01009749F06AE271E03A
:100230000E94A102892B09F09CC0B0922602109264
:10024000300280E00E9453009C012C9DC0012D9D36
:10025000900D3C9D900D1124892F869586958A508E
:100260008F3108F4A8C0299A2A9AB092270287E30E
:1002700091E00E94670081E00E9453009695879567
:1002800096958795982F8456833308F49CC09436AE
:1002900008F096C0709221028091210287BDB09231
:1002A00028028EE491E00E94670089B18095881F42
:1002B0008827881F8093290282E00E945300969528
:1002C00087959695879580932A02823308F081C09E
:1002D00085E691E00E9467008091260281117FC02F
:1002E0008091270281117BC080912802811177C003
:1002F00080912902811173C080912C028093B400F7
:1003000080912D0288BD289AB0922B0280912C02F8
:100310008111BBC080912D02882349F08091220277
:100320009091230201969093230280932202809160
:10033000240290912502883C910508F456C08091D2
:10034000220290912302843F914008F44EC0809194
:100350002E0290912F02019690932F0280932E02ED
:10036000109225021092240210922302109222026F
:100370003CC061E371E0C4010E94A102892B09F035
:100380005ECF65E371E090E080E00E946D0200972F
:1003900021F00E944F0280932C0265E371E090E00F
:1003A00080E00E946D02009709F449CF0E944F023D
:1003B00080932D0244CF29982A98109227025BCF70
:1003C0001092210269CFA0922102A7BC10922802AC
:1003D0006CCF893C08F480CF8DE791E07BCF109201
:1003E000B40018BC289810922B0280912602882312
:1003F00051F084E991E00E94670084EB91E00E9453
:1004000067001092260280912E0290912F02809117
:100410002E0290912F0280912E0290912F024091F6
:10042000290230912802209127029F938F93809177
:100430002D021F928F9380912C021F928F93809197
:100440002B021F928F9380912A021F928F931F92EB
:100450004F931F923F931F922F93FF92EF921F9300
:100460000F930E94B102C8010E9467008FEF91EEC6
:1004700024E0815090402040E1F700C000000FB61A
:10048000F894DEBF0FBECDBFC0CE80912402909104
:100490002502019690932502809324023BCFFC0114
:1004A00088279927E89421912032E9F3293010F028
:1004B0002E30C8F32B3241F02D3239F4689404C049
:1004C0000E949902820F911D219120532A30C0F37E
:1004D0001EF4909581959F4F089541E352E00E944C
:1004E00072020895FA01A191B081009719F4109752
:1004F000E1F0CD01DC01CD010D90002011F4C0012F
:1005000013C0FB012191222319F02015D9F7F3CF55
:10051000FB012191201519F41E92119606C0222389
:10052000C1F70D900020A1F7D001FA01A193B0838B
:1005300008957AE0979F902D879F802D910D11242B
:100540000895FB01DC018D91019080190110D9F310
:10055000990B0895FB01DC0101900D920020E1F759
:100560000895AEE0B0E0E7EBF2E00C9460050D8991
:100570001E8986E08C831A8309838FEF9FE79E8311
:100580008D83AE01475E5F4F6F89788DCE010196F6
:100590000E94D4022F813885020F131FF8011082A8
:1005A0002E96E4E00C947C05ABE0B0E0EAEDF2E0DE
:1005B0000C9452057C013B018A01FC0117821682D2
:1005C000838181FFC8C1CE0101965C01F70193814F
:1005D000F30193FD859193FF81913F01882309F4F5
:1005E00053C1853239F493FD859193FF81913F0189
:1005F000853229F4B70190E00E94C404E7CF912C22
:10060000212C312CFFE1F31538F08B3211F190F4ED
:10061000803209F1833229F137FC3CC020ED280FEC
:100620002A3050F536FE20C08AE0989E200D112415
:10063000922E06C08D3291F0803371F7689430F8B5
:10064000F30193FD859193FF81913F018111DACFF1
:1006500021C0689431F8689432F8F2CF689433F886
:10066000EFCF689434F8ECCFEAE02E9E200D1124F1
:10067000222E689435F8E4CF8E3229F436FC04C17A
:10068000689436F8DDCF8C3619F4689437F8D8CFF3
:100690008836B1F2982F9F7D95549330E0F08336E1
:1006A000A1F18337C1F1833509F063C02801F2E07D
:1006B0004F0E511CF801C080D180692D70E036FCCE
:1006C00002C06FEF7FEFC6010E94AE044C01689438
:1006D00037F882010AC00C5F1F4FFFE3F9838824BB
:1006E0008394912C6501E89437F833FE2DC0522C89
:1006F0008114910471F5552009F468CFB70180E2A7
:1007000090E00E94C4045A94F6CFF8018081898356
:100710000E5F1F4FE4CF2801F2E04F0E511CF8018D
:10072000C080D180692D70E036FC02C06FEF7FEF92
:10073000C6010E94B9044C018201D5CFB70180E205
:1007400090E00E94C4042A942814190409F0B0F718
:10075000CECFF60137FC859137FE81916F01B7014D
:1007600090E00E94C40451105A94F1E08F1A91084D
:10077000BFCF843619F0893609F077C0F80137FE0B
:100780006BC060817181828193810C5F1F4FF32D5B
:10079000FF763F2E97FF09C09095809570956195E3
:1007A0007F4F8F4F9F4F689437F82AE030E0A501C4
:1007B0000E94F404C82ECA188C2C432C36FE0CC0A0
:1007C000E89440F8C91440F434FE05C032FC03C07C
:1007D000F32DFE7E4F2E892C44FE95C0FE01EC0DBC
:1007E000F11D8081803309F087C0242D297E422E9F
:1007F000842D8870582E43FC95C040FE8FC09C2CE1
:10080000821418F42C0C922C981844FE91C0B70155
:1008100080E390E00E94C40442FE09C088E790E0B3
:1008200041FE02C088E590E0B7010E94C404C914EB
:1008300008F48AC0CA94D12C9FEFC91AD90ACA0CED
:10084000DB1CF60182916F01B70190E00E94C404A5
:10085000AC14BD04B1F74FCF60817181072E000C3D
:10086000880B990B0E5F1F4F92CFD32CE894D4F8CE
:100870002AE030E0853739F1232D297FD22E8F36BB
:1008800001F148F48835A9F0F701868197812B960C
:10089000E2E10C946E05803749F08837A9F7D4FE61
:1008A00002C06894D2F820E130E00DC06894D4F81A
:1008B000F6CF34FE03C0822F8660D82E20E132E0CE
:1008C00002C028E030E0F801D7FE0FC060817181DE
:1008D000828193810C5F1F4FA5010E94F404C82EF2
:1008E000CA183D2CE89437F867CF6081718190E099
:1008F00080E00E5F1F4FF0CF42FC02C0839478CFA0
:100900008394839475CF842D867809F471CFF6CFC4
:10091000B70180E290E00E94C40483948214C0F383
:10092000512C73CF522C5818821408F46ECFF8CF84
:10093000842D867809F47BCF8BE241FE80E247FC70
:100940008DE2B70190E071CFB70180E390E00E94A3
:10095000C4049A946CCF8FEF9FEF99CFFC01059060
:10096000615070400110D8F7809590958E0F9F1FB1
:100970000895FC016150704001900110D8F78095F6
:1009800090958E0F9F1F08950F931F93CF93DF9322
:10099000182F092FEB018B8181FD09C01FEF0FEF8D
:1009A000812F902FDF91CF911F910F91089582FF9A
:1009B00014C02E813F818C819D81281739073CF41A
:1009C000E881F981CF0101969983888310838E8114
:1009D0009F8101969F838E83E3CFE885F985812FE0
:1009E0000995892BA1F3DACFFA01AA27283051F112
:1009F000203181F1E8946F936E7F6E5F7F4F8F4F50
:100A00009F4FAF4FB1E03ED0B4E03CD0670F781FAE
:100A1000891F9A1FA11D680F791F8A1F911DA11D93
:100A20006A0F711D811D911DA11D20D009F46894CC
:100A30003F912AE0269F11243019305D3193DEF674
:100A4000CF010895462F4770405D4193B3E00FD02A
:100A5000C9F7F6CF462F4F70405D4A3318F0495D15
:100A600031FD4052419302D0A9F7EACFB4E0A695F8
:100A70009795879577956795BA95C9F7009761051A
:100A8000710508959B01AC010A2E06945795479570
:100A900037952795BA95C9F7620F731F841F951F65
:100AA000A01D08952F923F924F925F926F927F9276
:100AB0008F929F92AF92BF92CF92DF92EF92FF926E
:100AC0000F931F93CF93DF93CDB7DEB7CA1BDB0B1A
:100AD0000FB6F894DEBF0FBECDBF09942A883988BF
:100AE00048885F846E847D848C849B84AA84B984C6
:100AF000C884DF80EE80FD800C811B81AA81B981D2
:100B0000CE0FD11D0FB6F894DEBF0FBECDBFED01E5
:100B10000895F894FFCF41726475696E6F2032209A
:100B2000284368616F206465204661627269636171
:100B30002920696E69636961646F2E0D0A003A00AD
:100B40005041524144410056454C002C0054656DC3
:100B50007065726174757261204372697469636152
:100B6000210D0A004D61646569726120666F7261D2
:100B700020646F204569786F0D0A004E6976656CB8
:100B800020646F2074616E71756520424149584F31
:100B90000D0A004E6976656C20646F2074616E7179
:100BA000756520414C544F0D0A00506172616461BB
:100BB000207265616C697A61646120636F6D207376
:100BC00075636573736F210D0A00504152414441B2
:100BD0003A310D0A005354415455533A25642C259B
:100BE000642C25642C25642C25642C25642C256418
:060BF0002C25640D0A0033
:107E0000112484B714BE81FFF0D085E080938100F7
:107E100082E08093C00088E18093C10086E0809377
:107E2000C20080E18093C4008EE0C9D0259A86E02C
:107E300020E33CEF91E0309385002093840096BBD3
:107E4000B09BFECF1D9AA8958150A9F7CC24DD24C4
:107E500088248394B5E0AB2EA1E19A2EF3E0BF2EE7
:107E6000A2D0813461F49FD0082FAFD0023811F036
:107E7000013811F484E001C083E08DD089C08234E0
:107E800011F484E103C0853419F485E0A6D080C0E4
:107E9000853579F488D0E82EFF2485D0082F10E0AE
:107EA000102F00270E291F29000F111F8ED06801E7
:107EB0006FC0863521F484E090D080E0DECF843638
:107EC00009F040C070D06FD0082F6DD080E0C81688
:107ED00080E7D80618F4F601B7BEE895C0E0D1E017
:107EE00062D089930C17E1F7F0E0CF16F0E7DF06D8
:107EF00018F0F601B7BEE89568D007B600FCFDCFD4
:107F0000A601A0E0B1E02C9130E011968C91119780
:107F100090E0982F8827822B932B1296FA010C0160
:107F200087BEE89511244E5F5F4FF1E0A038BF0790
:107F300051F7F601A7BEE89507B600FCFDCF97BE46
:107F4000E89526C08437B1F42ED02DD0F82E2BD052
:107F50003CD0F601EF2C8F010F5F1F4F84911BD097
:107F6000EA94F801C1F70894C11CD11CFA94CF0C13
:107F7000D11C0EC0853739F428D08EE10CD085E9AC
:107F80000AD08FE07ACF813511F488E018D01DD067
:107F900080E101D065CF982F8091C00085FFFCCF94
:107FA0009093C60008958091C00087FFFCCF809118
:107FB000C00084FD01C0A8958091C6000895E0E648
:107FC000F0E098E1908380830895EDDF803219F02E
:107FD00088E0F5DFFFCF84E1DECF1F93182FE3DFCA
:107FE0001150E9F7F2DF1F91089580E0E8DFEE27F6
:047FF000FF270994CA
:027FFE00040479
:00000001FF
