:100000000C9434000C949F000C9451000C945100FB
:100010000C9451000C9451000C9451000C9451001C
:100020000C9451000C9451000C9451000C9451000C
:100030000C9451000C9451000C9451000C945100FC
:100040000C9451000C9451000C9473000C945100CA
:100050000C9451000C9451000C9451000C945100DC
:100060000C9451000C94510011241FBECFEFD8E026
:10007000DEBFCDBF23E0A6EEB2E001C01D92A633E5
:10008000B207E1F712E0A0E0B1E0E0E7FBE002C078
:1000900005900D92A63EB107D9F70E94AE000C94D0
:1000A000B6050C94000090917C00987F892B80937A
:1000B0007C0080917A00806480937A0080917A003D
:1000C00086FDFCCF80917800909179000895FC0125
:1000D0009191992339F08091C00085FFFCCF9093D6
:1000E000C600F6CF08951F920F920FB60F921124FB
:1000F0008F939F93EF93FF938091C600E091E60268
:100100008A3091F4F0E0E951FD4F108281E0809354
:1001100033031092E602FF91EF919F918F910F9020
:100120000FBE0F901F901895EF33A8F791E09E0F28
:100130009093E602F0E0E951FD4F8083ECCF1F92EF
:100140000F920FB60F9211248F9381E080933203A8
:100150008F910F900FBE0F901F901895CF93DF9344
:10016000CDB7DEB7C058D1090FB6F894DEBF0FBEC9
:10017000CDBF1092C50087E68093C40088E98093C4
:10018000C10086E08093C20080E480937C0087E811
:1001900080937A0052985A9A82E08093690081E0B5
:1001A0008DBB789483E491E00E946700512C8E010E
:1001B0000F5F1F4F49E1242E42E0342E5EE5652E8D
:1001C00052E0752E69E7C62E62E0D62E72E9A72EA0
:1001D00072E0B72EEBEA8E2EE2E09E2E8091330382
:1001E0008823D1F067EE72E0C8010E94D70266E66C
:1001F00071E0C8010E949A027C01009759F06CE3FB
:1002000071E00E94CE02892B09F0F6C088E691E0E9
:100210000E9467001092330380913203882351F0CB
:1002200081E991E00E94670085EA91E00E94670001
:100230001092320380E00E9453007C0190932803C7
:100240008093270381E00E945300F694E794F6948C
:10025000E794E0922C0396958795969587958093E1
:100260002B0399279F938F93FF24FF92EF928EEA9F
:1002700091E09F938F931F930F930E94DE02C8011A
:100280000E94670053940FB6F894DEBF0FBECDBF37
:100290009DE1951508F0A6C06AEB71E0C8010E94C7
:1002A000D702C8010E94670080913103811110C1FB
:1002B00089E091E09F938F9380EE91E09F938F93DD
:1002C0001F930F930E94DE02C8010E9467000F90E7
:1002D0000F900F900F900F900F908091300381112D
:1002E000FAC08DE191E09F938F938CEF91E09F9303
:1002F0008F931F930F930E94DE02C8010E94670034
:100300000F900F900F900F900F900F9080912F03F0
:100310008111E4C080E391E09F938F933F922F92ED
:100320001F930F930E94DE02C8010E94670063E3DF
:1003300072E0C8010E94D702C8010E946700809144
:100340002E030F900F900F900F900F900F9082330D
:1003500008F0C7C086E492E00E94670080912D03F8
:100360008111C7C08CE391E09F938F937F926F922E
:100370001F930F930E94DE02C8010E9467008091C4
:100380002C031F928F93DF92CF921F930F930E94A3
:10039000DE02C8010E94670080912B031F928F9399
:1003A000BF92AF921F930F930E94DE02C8010E947A
:1003B000670080912A038F93809129038F939F92E6
:1003C0008F921F930F930E94DE02C8010E94670064
:1003D00081EC92E00E9467000FB6F894DEBF0FBE7A
:1003E000CDBF512C9FEF21EE84E091502040804002
:1003F000E1F700C00000F2CE68E871E0C7010E949A
:10040000CE02892B09F006CF6FE871E090E080E022
:100410000E949A02009721F00E947C02809331038F
:100420006FE871E090E080E00E949A02009721F06E
:100430000E947C02809330036FE871E090E080E0DE
:100440000E949A02009721F00E947C0280932F0361
:100450006FE871E090E080E00E949A02009721F03E
:100460000E947C0280932E036FE871E090E080E0B0
:100470000E949A02009721F00E947C0280932D0333
:100480006FE871E090E080E00E949A02009721F00E
:100490000E947C0280932C036FE871E090E080E082
:1004A0000E949A02009721F00E947C0280932B0305
:1004B0006FE871E090E080E00E949A02009709F4F2
:1004C000A9CE0E947C0290932A0380932903A2CE96
:1004D00080E091E0EFCE80E191E005CF86E291E00F
:1004E0001BCF893C18F08EE492E036CF85E592E090
:1004F00033CF86E391E038CFFC0188279927E89431
:1005000021912032E9F3293010F02E30C8F32B323C
:1005100041F02D3239F4689404C00E94C602820F63
:10052000911D219120532A30C0F31EF4909581959E
:100530009F4F089544E353E00E949F020895FA01FB
:10054000A191B081009719F41097E1F0CD01DC0181
:10055000CD010D90002011F4C00113C0FB012191C9
:10056000222319F02015D9F7F3CFFB012191201593
:1005700019F41E92119606C02223C1F70D90002097
:10058000A1F7D001FA01A193B08308957AE0979F73
:10059000902D879F802D910D11240895FB01DC0182
:1005A0008D91019080190110D9F3990B0895FB01E9
:1005B000DC0101900D920020E1F70895AEE0B0E07B
:1005C000E4EEF2E00C948D050D891E8986E08C83A3
:1005D0001A8309838FEF9FE79E838D83AE01475E69
:1005E0005F4F6F89788DCE0101960E9401032F81A4
:1005F0003885020F131FF80110822E96E4E00C9448
:10060000A905ABE0B0E0E7E0F3E00C947F057C01E6
:100610003B018A01FC0117821682838181FFC8C1D8
:10062000CE0101965C01F7019381F30193FD859161
:1006300093FF81913F01882309F453C1853239F436
:1006400093FD859193FF81913F01853229F4B70194
:1006500090E00E94F104E7CF912C212C312CFFE196
:10066000F31538F08B3211F190F4803209F18332B6
:1006700029F137FC3CC020ED280F2A3050F536FE1A
:1006800020C08AE0989E200D1124922E06C08D3243
:1006900091F0803371F7689430F8F30193FD859100
:1006A00093FF81913F018111DACF21C0689431F825
:1006B000689432F8F2CF689433F8EFCF689434F846
:1006C000ECCFEAE02E9E200D1124222E689435F8FE
:1006D000E4CF8E3229F436FC04C1689436F8DDCFBD
:1006E0008C3619F4689437F8D8CF8836B1F2982F41
:1006F0009F7D95549330E0F08336A1F18337C1F1AB
:10070000833509F063C02801F2E04F0E511CF80157
:10071000C080D180692D70E036FC02C06FEF7FEFA2
:10072000C6010E94DB044C01689437F882010AC0BC
:100730000C5F1F4FFFE3F98388248394912C65019C
:10074000E89437F833FE2DC0522C8114910471F5D2
:10075000552009F468CFB70180E290E00E94F104CF
:100760005A94F6CFF801808189830E5F1F4FE4CF42
:100770002801F2E04F0E511CF801C080D180692D94
:1007800070E036FC02C06FEF7FEFC6010E94E60406
:100790004C018201D5CFB70180E290E00E94F104C4
:1007A0002A942814190409F0B0F7CECFF60137FCCB
:1007B000859137FE81916F01B70190E00E94F104AD
:1007C00051105A94F1E08F1A9108BFCF843619F076
:1007D000893609F077C0F80137FE6BC060817181FE
:1007E000828193810C5F1F4FF32DFF763F2E97FF81
:1007F00009C090958095709561957F4F8F4F9F4F61
:10080000689437F82AE030E0A5010E942105C82E3F
:10081000CA188C2C432C36FE0CC0E89440F8C9143E
:1008200040F434FE05C032FC03C0F32DFE7E4F2E93
:10083000892C44FE95C0FE01EC0DF11D80818033B2
:1008400009F087C0242D297E422E842D8870582ED1
:1008500043FC95C040FE8FC09C2C821418F42C0CD5
:10086000922C981844FE91C0B70180E390E00E945A
:10087000F10442FE09C088E790E041FE02C088E52D
:1008800090E0B7010E94F104C91408F48AC0CA9428
:10089000D12C9FEFC91AD90ACA0CDB1CF601829130
:1008A0006F01B70190E00E94F104AC14BD04B1F7F0
:1008B0004FCF60817181072E000C880B990B0E5F62
:1008C0001F4F92CFD32CE894D4F82AE030E085373C
:1008D00039F1232D297FD22E8F3601F148F4883546
:1008E000A9F0F701868197812B96E2E10C949B0594
:1008F000803749F08837A9F7D4FE02C06894D2F84F
:1009000020E130E00DC06894D4F8F6CF34FE03C087
:10091000822F8660D82E20E132E002C028E030E04D
:10092000F801D7FE0FC060817181828193810C5FD5
:100930001F4FA5010E942105C82ECA183D2CE8941E
:1009400037F867CF6081718190E080E00E5F1F4FC4
:10095000F0CF42FC02C0839478CF8394839475CF08
:10096000842D867809F471CFF6CFB70180E290E04C
:100970000E94F10483948214C0F3512C73CF522C43
:100980005818821408F46ECFF8CF842D867809F4B5
:100990007BCF8BE241FE80E247FC8DE2B70190E025
:1009A00071CFB70180E390E00E94F1049A946CCF7C
:1009B0008FEF9FEF99CFFC010590615070400110BF
:1009C000D8F7809590958E0F9F1F0895FC01615078
:1009D000704001900110D8F7809590958E0F9F1F61
:1009E00008950F931F93CF93DF93182F092FEB01D7
:1009F0008B8181FD09C01FEF0FEF812F902FDF91B9
:100A0000CF911F910F91089582FF14C02E813F81D5
:100A10008C819D81281739073CF4E881F981CF0149
:100A200001969983888310838E819F8101969F838D
:100A30008E83E3CFE885F985812F0995892BA1F372
:100A4000DACFFA01AA27283051F1203181F1E89458
:100A50006F936E7F6E5F7F4F8F4F9F4FAF4FB1E0B1
:100A60003ED0B4E03CD0670F781F891F9A1FA11DAC
:100A7000680F791F8A1F911DA11D6A0F711D811DAD
:100A8000911DA11D20D009F468943F912AE0269F72
:100A900011243019305D3193DEF6CF010895462FD1
:100AA0004770405D4193B3E00FD0C9F7F6CF462FB2
:100AB0004F70405D4A3318F0495D31FD405241931B
:100AC00002D0A9F7EACFB4E0A695979587957795D8
:100AD0006795BA95C9F700976105710508959B015F
:100AE000AC010A2E06945795479537952795BA95E8
:100AF000C9F7620F731F841F951FA01D08952F92C1
:100B00003F924F925F926F927F928F929F92AF929D
:100B1000BF92CF92DF92EF92FF920F931F93CF93EA
:100B2000DF93CDB7DEB7CA1BDB0B0FB6F894DEBF81
:100B30000FBECDBF09942A88398848885F846E84A7
:100B40007D848C849B84AA84B984C884DF80EE80F1
:100B5000FD800C811B81AA81B981CE0FD11D0FB6FA
:100B6000F894DEBF0FBECDBFED010895F894FFCF1E
:100B70004352C38D5449434F004E4F524D414C0098
:100B8000464F524120444F204549584F00414C495F
:100B90004E4841444F00444554454354414441006C
:100BA0004C4956524500415449564100504152412A
:100BB00044410041726475696E6F2031202853757D
:100BC0007065727669736F722920696E69636961F5
:100BD000646F2E0D0A003A005061726164612072E8
:100BE00065616C697A61646120636F6D2073756300
:100BF0006573736F210D0A00535441545553002CF3
:100C00000050617261646120736F6C696369746123
:100C100064610D0A005041524144410D0A0056459D
:100C20004C3A25642C25640D0A002D2D2D2053747B
:100C30006174757320646120506C616E7461204929
:100C40006E647573747269616C202D2D2D0D0A0010
:100C500053656E736F722064652054656D706572A4
:100C600061747572613A2025730D0A0053656E73C5
:100C70006F7220646520496E636C696E61C3A7C39F
:100C8000A36F3A2025730D0A0053656E736F7220AF
:100C900064652050726573656EC3A7613A20257341
:100CA0000D0A004EC3AD76656C20646F2054616EF2
:100CB0007175653A2000424149584F0D0A00414C78
:100CC000544F0D0A004E4F524D414C0D0A005374C3
:100CD000617475732064612050726F6475C3A7C31B
:100CE000A36F3A2025730D0A0056656C6F63696423
:100CF000616465204D6F746F7220313A2025640D58
:100D00000A0056656C6F636964616465204D6F7499
:100D10006F7220323A2025640D0A00426C6F636FB7
:100D20007320436F727461646F733A2025640D0AF7
:100D3000002D2D2D2D2D2D2D2D2D2D2D2D2D2D2D10
:100D40002D2D2D2D2D2D2D2D2D2D2D2D2D2D2D2DD3
:060D50002D2D2D0D0A00FF
:00000001FF
